:0400000000EF02F01B
:10000800FACF29F0FBCF2AF0E9CF2BF0EACF2CF07A
:10001800E1CF2DF0E2CF2EF0D9CF2FF0DACF30F0AC
:10002800F3CF31F0F4CF32F0F6CF33F0F7CF34F02E
:10003800F8CF35F0F5CF36F09EA601D001D037D1F4
:100048009DA601D001D033D19E96C7B401D001D06E
:1000580012D0C7BA01D001D00ED0000E136EC9CF8E
:1000680037F03750940AD8A401D001D01FD1010E1F
:10007800146E1CD11BD1C7A401D001D0B6D0C7BA09
:1000880001D001D0B2D01450D8B401D001D0ADD035
:10009800C9CF37F0155020EE1EF0DF6201D001D035
:1000A8009AD0000E016E000E026E000E036E000E56
:1000B800046E010E166E410EC96E34EC03F031EC7D
:1000C80003F01850490DF3CF1FF0F4CF20F0000EC5
:1000D800226EFF0E216E64EC02F03D0E1F244F6E5F
:1000E800000E2020506E1950490DF3CF1FF0F4CFA9
:1000F80020F0000E226EFF0E216E64EC02F03D0E21
:100108001F24496E000E20204A6E1A50490DF3CF65
:100118001FF0F4CF20F0000E226EFF0E216E64EC6B
:1001280002F03D0E1F244D6E000E20204E6E1B5017
:10013800490DF3CF1FF0F4CF20F0000E226EFF0E12
:10014800216E64EC02F03D0E1F24536E000E202039
:10015800546E1C50490DF3CF1FF0F4CF20F0000E61
:10016800226EFF0E216E64EC02F03D0E1F24516ECC
:10017800000E2020526E1D50490DF3CF1FF0F4CF12
:1001880020F0000E226EFF0E216E64EC02F03D0E90
:100198001F244B6E000E20204C6E286E8A0E1F6E98
:1001A800285024EC03F0010E436E43C046F046C0CD
:1001B80044F044C048F048C042F042C045F03F0E09
:1001C800476E1750D8B401D001D002D08A9406D017
:1001D8008A8404D003D04E0EC96EC688000E146EF1
:1001E800090E136EECD0EBD061D0C7AA01D001D0B4
:1001F8005DD01450D8B401D001D058D03BD03AD0FB
:10020800000E156EC9CF17F01750151A020E136E8F
:100218004DD0C9CF18F01850151A030E136E46D0DA
:10022800C9CF19F01950151A040E136E3FD0C9CF53
:100238001AF01A50151A050E136E38D0C9CF1BF0D4
:100248001B50151A060E136E31D0C9CF1CF01C5066
:10025800151A070E136E2AD0C9CF1DF01D50151A96
:10026800080E136E23D0C9CF1EF0090E136E1ED0D0
:100278001DD01CD01350000AD8B4C2D7020AD8B473
:10028800C8D7010AD8B4CCD7070AD8B4D0D7010A3E
:10029800D8B4D4D7030AD8B4D8D7010AD8B4DCD78D
:1002A8000F0AD8B4E0D702D001D000D0C688F2A493
:1002B80001D001D084D0F2AA01D001D080D0F2942C
:1002C800D6508A0FD66E45B002D08A9001D08A8067
:1002D80042B002D08A9601D08A8648B002D08A9A63
:1002E80001D08A8A44B002D08A9801D08A8846B060
:1002F80002D08B9401D08B8443B002D0899801D06E
:100308008988476601D001D009D02AEC03F037EC80
:1003180003F0000E126E000E116E00D0114A122A60
:100328005050121802E14F501118D8A401D001D032
:1003380004D04790000E456E00D04A50121802E1D2
:1003480049501118D8A401D001D004D04792000E0A
:10035800426E00D05450121802E153501118D8A41C
:1003680001D001D004D04794000E486E00D04E5002
:10037800121802E14D501118D8A401D001D004D0B0
:100388004796000E446E00D05250121802E15150A8
:100398001118D8A401D001D004D04798000E466E99
:1003A80000D04C50121802E14B501118D8A401D0BB
:1003B80001D005D0479A000E436E01D000D036C058
:1003C800F5FF35C0F8FF34C0F7FF33C0F6FF32C081
:1003D800F4FF31C0F3FF30C0DAFF2FC0D9FF2EC0C1
:1003E800E2FF2DC0E1FF2CC0EAFF2BC0E9FF2AC0C5
:1003F800FBFF29C0FAFF1100E1EF02F016EC03F051
:10040800FAEC02F009EC03F0C2EC02F09292F28EE0
:100418002EEC03F08A84000E386E000E396E000E42
:100428003A6E000E3B6E000E386E000E396E000EEE
:100438003A6E000E3B6E3B50800A800F08E1000EBA
:100448003A5C05E1020E395C02E1BC0E385CD8A0CA
:1004580001D001D002D01AD019D0010E3826000ED2
:100468003922000E3A22000E3B223B50800A800FB0
:1004780008E1000E3A5C05E1020E395C02E1BC0EAF
:10048800385CD8A001D001D0E8D700D0010E0126F1
:10049800000E0222000E0322000E0422660E015CEA
:1004A800000E0258000E0358000E0458D8A001D0C0
:1004B80001D001D08A840400B6D7B5D700EF02F086
:1004C800236E000E256E235022AE01D001D009D034
:1004D800216C221ED8B0222A236E010E256E2350CD
:1004E80000D020AE01D001D007D01F6C201ED8B09C
:1004F800202A010E251A00D0000E276E000E266E47
:1005080022502110D8B401D001D028D0236E010E7A
:10051800246E235005D0D89021362236242A00D0C4
:1005280022AE01D001D0F7D701D000D0D89026361E
:10053800273621501F5C22502058D8A001D001D066
:1005480006D021501F5E2250205A268000D0D89015
:1005580022322132242EEAD701D000D02550D8B437
:1005680001D001D005D0266C271ED8B0272A00D08C
:1005780026C01FF027C020F000D01200F28AF184B4
:10058800400ED56E8A0ED66E000E506E3D0E4F6E22
:10059800000E4A6E610E496E000E4E6E610E4D6E73
:1005A800000E546E610E536E000E526E610E516E47
:1005B800000E4C6E610E4B6E120000EE01F01E0E26
:1005C800EE6AE806FDE13A0EF66E060EF76E000ECC
:1005D800F86E00EE3CF010EE0DF00900F5CFEEFFDE
:1005E800E550E150FAE1000102EF02F0C70E0F01F9
:1005F8000F013A170F010F01399B93909396939827
:10060800939A9494929893941200180E9412940EBC
:10061800C86EC68AC650F00B0609C66EC580D08E55
:100628009D961200FC0ED316D388D38AD38C9B8C4C
:10063800120032323232323201010101013F01002F
:100648001FC0D6FFD58EF28AF2941200D59EF2947E
:10065800F29A12009E969D8612009E969D96120012
:0C066800C6889E9612009E969D86120089
:020000040020DA
:08000000FFFFFFFFFFFFFFFF00
:020000040030CA
:0E000000FF380E1FFFBC05FF0FC00FE00F40C2
:00000001FF
