:04000000D0EF00F04D
:10000800FACF01F0FBCF02F0E9CF03F0EACF04F01A
:10001800E1CF05F0E2CF06F0D9CF07F0DACF08F04C
:10002800F3CF09F0F4CF0AF0F6CF0BF0F7CF0CF0CE
:10003800F8CF0DF0F5CF0EF0F2A401D001D08FD09B
:10004800F294D6508A0FD66E40B002D08A9001D072
:100058008A803DB002D08A9601D08A8642B002D00A
:100068008A9A01D08A8A3FB002D08A9801D08A88B9
:1000780041B002D08B9401D08B843EB002D08998D5
:1000880001D089881C4A1D2A32501D1802E13150BE
:100098001C18D8A401D001D003D0000E406E00D0A7
:1000A8002C501D1802E12B501C18D8A401D001D0E7
:1000B80003D0000E3D6E00D036501D1802E13550B9
:1000C8001C18D8A401D001D003D0000E426E00D075
:1000D80030501D1802E12F501C18D8A401D001D0AF
:1000E80003D0000E3F6E00D034501D1802E133508B
:1000F8001C18D8A401D001D003D0000E416E00D046
:100108002E501D1802E12D501C18D8A401D001D082
:1001180003D0000E3E6E00D01D50050A2D0ED8B437
:100128001C18D8A401D001D011D0010E406E010EC8
:100138003D6E010E426E010E3F6E010E416E010EC4
:100148003E6E000E1D6E000E1C6E00D0010E1826AD
:10015800000E1922000E1A22000E1B2200D00EC01B
:10016800F5FF0DC0F8FF0CC0F7FF0BC0F6FF0AC083
:10017800F4FF09C0F3FF08C0DAFF07C0D9FF06C0C3
:10018800E2FF05C0E1FF04C0EAFF03C0E9FF02C0C7
:10019800FBFF01C0FAFF110097EF02F09EA601D005
:1001A80001D0A4D09E96C7B401D001D012D0C7BA4E
:1001B80001D001D00ED0000E1E6EC9CF22F0225001
:1001C800940AD8A401D001D08FD0010E1F6E8CD014
:1001D8008BD0C7A401D001D026D0C7BA01D001D096
:1001E80022D01F50D8B401D001D01DD0C9CF22F0E1
:1001F800205020EE2AF0DF6201D001D00DD0000E91
:10020800186E000E196E000E1A6E000E1B6E010E8F
:10021800216E410EC96E02D04E0EC96E000E1F6EC1
:10022800090E1E6E61D0C7AA01D001D05DD01F5043
:10023800D8B401D001D058D03BD03AD0000E206EAF
:10024800C9CF23F02350201A020E1E6E4DD0C9CFFD
:1002580024F02450201A030E1E6E46D0C9CF25F074
:100268002550201A040E1E6E3FD0C9CF26F0265006
:10027800201A050E1E6E38D0C9CF27F02750201A35
:10028800060E1E6E31D0C9CF28F02850201A070E4E
:100298001E6E2AD0C9CF29F02950201A080E1E6ECA
:1002A80023D0C9CF2AF0090E1E6E1ED01DD01CD037
:1002B8001E50000AD8B4C2D7020AD8B4C8D7010A57
:1002C800D8B4CCD7070AD8B4D0D7010AD8B4D4D771
:1002D800030AD8B4D8D7010AD8B4DCD70F0AD8B4DF
:1002E800E0D702D001D000D0C68800D02150D8B4C1
:1002F80001D001D06FD02450470DF3CF0FF0F4CFC9
:1003080010F0000E126EFF0E116EEFEC01F03E0EB3
:100318000F24316E000E1020326E2550470DF3CF9A
:100328000FF0F4CF10F0000E126EFF0E116EEFEC0E
:1003380001F03E0E0F242B6E000E10202C6E26505E
:10034800470DF3CF0FF0F4CF10F0000E126EFF0E32
:10035800116EEFEC01F03E0E0F242F6E000E1020F0
:10036800306E2750470DF3CF0FF0F4CF10F0000E8A
:10037800126EFF0E116EEFEC01F03E0E0F24356E7B
:10038800000E1020366E2850470DF3CF0FF0F4CF33
:1003980010F0000E126EFF0E116EEFEC01F03E0E23
:1003A8000F24336E000E1020346E2950470DF3CF02
:1003B8000FF0F4CF10F0000E126EFF0E116EEFEC7E
:1003C80001F03E0E0F242D6E000E10202E6E000E32
:1003D800216E00D01200136E000E156E135012AE6F
:1003E80001D001D009D0116C121ED8B0122A136E98
:1003F800010E156E135000D010AE01D001D007D0F9
:100408000F6C101ED8B0102A010E151A00D0000E5D
:10041800176E000E166E12501110D8B401D001D00C
:1004280028D0136E010E146E135005D0D8901136D3
:100438001236142A00D012AE01D001D0F7D701D05D
:1004480000D0D8901636173611500F5C125010583D
:10045800D8A001D001D006D011500F5E1250105A0A
:10046800168000D0D89012321132142EEAD701D05B
:1004780000D01550D8B401D001D005D0166C171E85
:10048800D8B0172A00D016C00FF017C010F000D04F
:100498001200CCEC02F0B0EC02F0BFEC02F078EC09
:1004A80002F0D58E9292F28E8A84898200D0D2ECA4
:1004B80000F0150E185C340E1958000E1A58000E6C
:1004C8001B58D8B001D001D008D02350D8B401D0DF
:1004D80001D003D08A94899202D08A848982040048
:1004E800E6D7E5D7D0EF00F0F28AF184400ED56E5A
:1004F8008A0ED66E000E326E3E0E316E000E2C6ED7
:10050800610E2B6E000E306E610E2F6E000E366E71
:10051800610E356E000E346E610E336E000E2E6E57
:10052800610E2D6E120000EE18F0130EEE6AE8064A
:10053800FDE1A60EF66E050EF76E000EF86E00EEE3
:1005480037F010EE0CF00900F5CFEEFFE550E15062
:10055800FAE100014DEF02F0C70E0F010F013A1743
:100568000F010F01399B939093969398939A9494C3
:10057800929893941200180E9412940EC86EC68A1C
:10058800C650F00B0609C66EC580D08E9D96120027
:10059800FC0ED316D388D38AD38C9B8C12003232AC
:0A05A800323232320101010101017B
:020000040020DA
:08000000FFFFFFFFFFFFFFFF00
:020000040030CA
:0E000000FF380E1FFFBC05FF0FC00FE00F40C2
:00000001FF
